:020000040000FA
:06000000AAEF04F012005B
:020006001200E6
:0600080016EF00F01200EB
:02000E000000F0
:06001800C6EF01F012002A
:02001E000100DF
:0C0020000E00000088000000020000003C
:04002C00DACFE4FF44
:10003000E2CFDAFFE9CFE4FFEACFE4FFF6CFE4FF57
:10004000F7CFE4FFF5CFE4FFF3CFE4FFF4CFE4FF15
:10005000FACFE4FF00EE00F0100EE80403E3EECF69
:10006000E4FFFBD700EE16F0000EE80403E3EECF4A
:10007000E4FFFBD7E652D9CFE6FFE1CFD9FF040E6C
:10008000E1269EA456D1050E0001895D48E2885103
:10009000882BDE6EDD6A9E94892B050E106E10C0D3
:1000A0000CF088C007F0B8EC04F003C088F0BECFB5
:1000B00010F0BFCF11F0126A136ADECFE9FFDDCF77
:1000C000EAFFD890E936EA36D890E936EA36620E89
:1000D000E926000EEA2210C0EEFF11C0EEFF12C0AA
:1000E000EEFF13C0EEFFDECFE9FFDDCFEAFFD890D1
:1000F000E936EA36D890E936EA36620EE926000E8D
:10010000EA2200017651EE24766F7751EE20776F68
:100110007851EE20786F7951EE20796F0AD18851AD
:10012000882BE66ED950020FE96EDACFEAFFE5526E
:10013000E750EE6EED6A050E106E10C00CF088C030
:1001400007F0B8EC04F003C088F09E94020EDBCFF9
:10015000E9FF030EDBCFEAFFD890E936EA36D89004
:10016000E936EA36620EE926000EEA22EE50000178
:10017000765D766FEE507759776FEE507859786FDD
:10018000EE507959796FBECF10F0BFCF11F0126ADF
:10019000136A020EDBCFE9FF030EDBCFEAFFD89034
:1001A000E936EA36D890E936EA36620EE926000EDC
:1001B000EA2210C0EEFF11C0EEFF12C0EEFF13C026
:1001C000EEFF020EDBCFE9FF030EDBCFEAFFD89094
:1001D000E936EA36D890E936EA36620EE926000EAC
:1001E000EA227651EE24766F7751EE20776F7851C0
:1001F000EE20786F7951EE20796F76C07AF077C073
:100200007BF078C07CF079C07DF0050E096E0A6A3B
:100210000B6A0C6A7AC004F07BC005F07CC006F063
:100220007DC007F076EC04F004C07AF005C07BF0E6
:1002300006C07CF007C07DF0836AC00E80168490F3
:100240007AC0E6FF7BC0E6FF7CC0E6FF7DC0E6FF2C
:10025000F3D8E552E552E552E5520E0EF31801E1EE
:10026000F45065E00D0EF31801E1F4505EE00C0E61
:10027000F31801E1F45057E00B0EF31801E1F450CC
:1002800050E00A0EF31801E1F45049E0090EF318AA
:1002900001E1F45042E0080EF31801E1F4503BE0B4
:1002A000070EF31801E1F45034E0060EF31801E1F3
:1002B000F4502DE0050EF31801E1F45026E0040E91
:1002C000F31801E1F4501FE0030EF31801E1F450BC
:1002D00018E0020EF31801E1F45011E0010EF318DA
:1002E00001E1F4500AE0F35001E1F45004E0C00EE3
:1002F000836E84801ED084801CD0808A1AD080882F
:1003000018D0808616D0808414D0808212D080804D
:1003100010D083800ED083820CD083840AD0838651
:1003200008D0838806D0838A04D0838C02D0838E41
:1003300000D0040EE15C02E2E16AE552E16EE552B2
:10034000E7CFD9FFE55200EE15F0000EE80403E315
:10035000E5CFEDFFFBD700EE0FF0100EE80403E34E
:10036000E5CFEDFFFBD7E5CFFAFFE5CFF4FFE5CF13
:10037000F3FFE5CFF5FFE5CFF7FFE5CFF6FFE5CFDC
:10038000EAFFE5CFE9FFE5CFDAFF1100D8CFE4FFC0
:10039000E0CFE4FFE46EDACFE4FFE2CFDAFFE9CFAB
:1003A000E4FFEACFE4FFE652D9CFE6FFE1CFD9FF81
:1003B000020EE126F29E0001886B806A836A896BD7
:1003C000DE6ADD6ADECF14F0DDCF15F0D89015506F
:1003D00004E6040E145C000E155817E2DECFE9FFA8
:1003E000DDCFEAFFD890E936EA36D890E936EA362A
:1003F000620EE926000EEA22EE6AEE6AEE6AEE6A04
:10040000DF2A010E01E3DB2ADDD7F29E020EE15C5A
:1004100002E2E16AE552E16EE552E7CFD9FFE5522B
:10042000E5CFEAFFE5CFE9FFE5CFDAFFE550E5CF1D
:10043000E0FFE5CFD8FF1000D9CFE6FFE1CFD9FF2D
:10044000D950FB0FE96EFF0EDA20EA6EDA0EEE5C91
:10045000220EEE58000EEE58000EEE5804E20E0E7C
:10046000F36EF46AD2D1D950FB0FE96EFF0EDA2099
:10047000EA6EDA0EEE5C220EEE58000EEE58000E1A
:10048000EE5813E3D950FB0FE96EFF0EDA20EA6E47
:10049000F40EEE5C220EEE58000EEE58000EEE58F2
:1004A00004E20D0EF36EF46AB0D1D950FB0FE96E81
:1004B000FF0EDA20EA6EF40EEE5C220EEE58000E0D
:1004C000EE58000EEE5813E3D950FB0FE96EFF0E05
:1004D000DA20EA6E0E0EEE5C230EEE58000EEE5899
:1004E000000EEE5804E20C0EF36EF46A8ED1D95071
:1004F000FB0FE96EFF0EDA20EA6E0E0EEE5C230EA5
:10050000EE58000EEE58000EEE5813E3D950FB0FD4
:10051000E96EFF0EDA20EA6E270EEE5C230EEE582F
:10052000000EEE58000EEE5804E20B0EF36EF46A65
:100530006CD1D950FB0FE96EFF0EDA20EA6E270E60
:10054000EE5C230EEE58000EEE58000EEE5813E34C
:10055000D950FB0FE96EFF0EDA20EA6E410EEE5C19
:10056000230EEE58000EEE58000EEE5804E20A0E6E
:10057000F36EF46A4AD1D950FB0FE96EFF0EDA2010
:10058000EA6E410EEE5C230EEE58000EEE58000EA1
:10059000EE5813E3D950FB0FE96EFF0EDA20EA6E36
:1005A0005C0EEE5C230EEE58000EEE58000EEE5878
:1005B00004E2090EF36EF46A28D1D950FB0FE96EFC
:1005C000FF0EDA20EA6E5C0EEE5C230EEE58000E93
:1005D000EE58000EEE5813E3D950FB0FE96EFF0EF4
:1005E000DA20EA6E760EEE5C230EEE58000EEE5820
:1005F000000EEE5804E2080EF36EF46A06D1D950EC
:10060000FB0FE96EFF0EDA20EA6E760EEE5C230E2B
:10061000EE58000EEE58000EEE5813E3D950FB0FC3
:10062000E96EFF0EDA20EA6E900EEE5C230EEE58B5
:10063000000EEE58000EEE5804E2070EF36EF46A58
:10064000E4D0D950FB0FE96EFF0EDA20EA6E900E6F
:10065000EE5C230EEE58000EEE58000EEE5813E33B
:10066000D950FB0FE96EFF0EDA20EA6EAA0EEE5C9F
:10067000230EEE58000EEE58000EEE5804E2060E61
:10068000F36EF46AC2D0D950FB0FE96EFF0EDA2088
:10069000EA6EAA0EEE5C230EEE58000EEE58000E27
:1006A000EE5813E3D950FB0FE96EFF0EDA20EA6E25
:1006B000C50EEE5C230EEE58000EEE58000EEE58FE
:1006C00004E2050EF36EF46AA0D0D950FB0FE96E78
:1006D000FF0EDA20EA6EC50EEE5C230EEE58000E19
:1006E000EE58000EEE5813E3D950FB0FE96EFF0EE3
:1006F000DA20EA6EE00EEE5C230EEE58000EEE58A5
:10070000000EEE5804E2040EF36EF46A7ED0D95067
:10071000FB0FE96EFF0EDA20EA6EE00EEE5C230EB0
:10072000EE58000EEE58000EEE5813E3D950FB0FB2
:10073000E96EFF0EDA20EA6EFA0EEE5C230EEE583A
:10074000000EEE58000EEE5804E2030EF36EF46A4B
:100750005CD0D950FB0FE96EFF0EDA20EA6EFA0E7C
:10076000EE5C230EEE58000EEE58000EEE5813E32A
:10077000D950FB0FE96EFF0EDA20EA6E140EEE5C24
:10078000240EEE58000EEE58000EEE5804E2020E53
:10079000F36EF46A3AD0D950FB0FE96EFF0EDA20FF
:1007A000EA6E140EEE5C240EEE58000EEE58000EAB
:1007B000EE5813E3D950FB0FE96EFF0EDA20EA6E14
:1007C0002F0EEE5C240EEE58000EEE58000EEE5882
:1007D00004E2010EF36EF46A18D0D950FB0FE96EF3
:1007E000FF0EDA20EA6ED8802F0EEE54240EEE545F
:1007F000000EEE54000EEE5404E2F36AF46A05D0E3
:1008000004D00F0EF36EF46A00D0E552E7CFD9FFA3
:1008100012006F98490ECD6E9E909F90956A926AD5
:10082000836A806A0001606B616BB16AD08EF28E60
:10083000F28C9E949D84040E9F6E9484BD8412005D
:0E084000E8DFD38ED392D3900300FED71200D0
:02084E001E0E7C
:10085000F66E000EF76E000EF86E00010900F550FE
:10086000836F0900F550846F03E1836701D03DD0A9
:100870000900F5507E6F0900F5507F6F0900F550B3
:10088000806F09000900F550E96E0900F550EA6E25
:10089000090009000900F550816F0900F550826FC9
:1008A00009000900F6CF85F0F7CF86F0F8CF87F082
:1008B0007EC0F6FF7FC0F7FF80C0F8FF00018153C4
:1008C00002E1825307E00900F550EE6E8107F8E27D
:1008D0008207F9D785C0F6FF86C0F7FF87C0F8FF0B
:0C08E00000018307000E845BBFD71200EC
:0408EC00036A026A2F
:1008F000016A006A200EE76ED89004360536063687
:10090000073600360136023603360950005C0A50BD
:1009100001580B5002580C50035809E30950005E6F
:100920000A50015A0B50025A0C50035A042AE72E5F
:04093000E4D71200F6
:0C093400000EF36E00EE00F0080E01D87B
:100940001200EA6002D0EE6AFCD7F350E9601200B0
:04095000EE6AFCD778
:0C09540013EE00F023EE00F0F86A0F9C98
:1009600027EC04F003EC00F020EC04F0FBD71200BD
:10097000036A080EE76ED890073603360C50035C06
:0C09800002E3036E072AE72EF7D71200EF
:020000040030CA
:0100000021DE
:010001008E70
:0100020018E5
:010003001EDE
:010005008575
:010006008178
:00000001FF
