:020000040000FA
:0600000008EF04F01200FD
:020006001200E6
:0600080016EF00F01200EB
:01000E0000F1
:0600180062EF01F012008E
:02001E000100DF
:0C0020000E00000088000000010000003D
:04002C00DACFE4FF44
:10003000E2CFDAFFE9CFE4FFEACFE4FFF6CFE4FF57
:10004000F7CFE4FFF5CFE4FFF3CFE4FFF4CFE4FF15
:10005000FACFE4FF00EE00F0100EE80403E3EECF69
:10006000E4FFFBD700EE16F0000EE80403E3EECF4A
:10007000E4FFFBD7E652D9CFE6FFE1CFD9FF020E6E
:10008000E1269EA4EED000018851882BDE6EDD6A49
:10009000050E106E10C00CF088C007F016EC04F0CE
:1000A00003C088F09E94DECFE9FFDDCFEAFFD89051
:1000B000E936EA36D890E936EA36620EE926000ECD
:1000C000EA22EE500001765D0001766FEE500001ED
:1000D00077590001776FEE50000178590001786F71
:1000E000EE50000179590001796FBECF10F0BFCFFB
:1000F00011F0126A136ADECFE9FFDDCFEAFFD89074
:10010000E936EA36D890E936EA36620EE926000E7C
:10011000EA2210C0EEFF11C0EEFF12C0EEFF13C0C6
:10012000EEFFDECFE9FFDDCFEAFFD890E936EA3611
:10013000D890E936EA36620EE926000EEA2200017E
:100140007651EE240001766F00017751EE20000118
:10015000776F00017851EE200001786F000179512E
:10016000EE200001796F76C07AF077C07BF078C01E
:100170007CF079C07DF0050E096E0A6A0B6A0C6A84
:100180007AC004F07BC005F07CC006F07DC007F0AB
:10019000D4EC03F004C07AF005C07BF006C07CF01C
:1001A00007C07DF07AC0E6FF7BC0E6FF7CC0E6FFBB
:1001B0007DC0E6FFDCD8E552E552E552E5520D0E72
:1001C000F31801E1F45049E00C0EF31801E1F4508A
:1001D00043E00B0EF31801E1F4503DE00A0EF31872
:1001E00001E1F45037E0090EF31801E1F45031E079
:1001F000080EF31801E1F4502BE0070EF31801E1AB
:10020000F45025E0060EF31801E1F4501FE0050E4E
:10021000F31801E1F45019E0040EF31801E1F45071
:1002200013E0030EF31801E1F4500DE0020EF31891
:1002300001E1F45007E0010EF31801E1F45001E090
:100240000DD013D012D011D010D00FD00ED00DD0B1
:100250000CD00BD00AD009D008D007D083688068B2
:1002600004D0D38ED392D3900300020EE15C02E25D
:10027000E16AE552E16EE552E7CFD9FFE55200EEC3
:1002800015F0000EE80403E3E5CFEDFFFBD700EE29
:100290000FF0100EE80403E3E5CFEDFFFBD7E5CF49
:1002A000FAFFE5CFF4FFE5CFF3FFE5CFF5FFE5CFAC
:1002B000F7FFE5CFF6FFE5CFEAFFE5CFE9FFE5CFB2
:1002C000DAFF1100D8CFE4FFE0CFE4FFE46EDACF2D
:1002D000E4FFE2CFDAFFE9CFE4FFEACFE4FFE65242
:1002E000D9CFE6FFE1CFD9FF020EE126F29E000151
:1002F000886B806A836ADE6ADD6ADECF14F0DDCF48
:1003000015F0D890155004E6040E145C000E155834
:1003100017E2DECFE9FFDDCFEAFFD890E936EA3613
:10032000D890E936EA36620EE926000EEA22EE6A35
:10033000EE6AEE6AEE6ADF2A010E01E3DB2ADDD700
:10034000F29E020EE15C02E2E16AE552E16EE552E4
:10035000E7CFD9FFE552E5CFEAFFE5CFE9FFE5CFEB
:10036000DAFFE550E5CFE0FFE5CFD8FF1000D9CFA9
:10037000E6FFE1CFD9FFD950FB0FE96EFF0EDA207F
:10038000EA6ED880D80EEE548D0EEE54000EEE5468
:10039000000EEE5413E2D950FB0FE96EFF0EDA2087
:1003A000EA6E400EEE5C8E0EEE58000EEE58000E19
:1003B000EE5804E20D0EF36EF46A8AD1D950FB0FA9
:1003C000E96EFF0EDA20EA6ED8806F0EEE548D0EC5
:1003D000EE54000EEE54000EEE5413E2D950FB0F13
:1003E000E96EFF0EDA20EA6ED80EEE5C8D0EEE5846
:1003F000000EEE58000EEE5804E2010EF36EF46AA1
:1004000067D1D950FB0FE96EFF0EDA20EA6ED88073
:10041000030EEE548D0EEE54000EEE54000EEE540C
:1004200013E2D950FB0FE96EFF0EDA20EA6E6F0E71
:10043000EE5C8D0EEE58000EEE58000EEE5804E203
:10044000020EF36EF46A44D1D950FB0FE96EFF0E31
:10045000DA20EA6ED8809C0EEE548C0EEE54000E1C
:10046000EE54000EEE5413E2D950FB0FE96EFF0E6E
:10047000DA20EA6E030EEE5C8D0EEE58000EEE589A
:10048000000EEE5804E2030EF36EF46A21D1D95047
:10049000FB0FE96EFF0EDA20EA6ED880350EEE54BF
:1004A0008C0EEE54000EEE54000EEE5413E2D950B2
:1004B000FB0FE96EFF0EDA20EA6E9C0EEE5C8C0EEE
:1004C000EE58000EEE58000EEE5804E2040EF36EE5
:1004D000F46AFED0D950FB0FE96EFF0EDA20EA6E07
:1004E000D880CE0EEE548B0EEE54000EEE54000E5D
:1004F000EE5413E2D950FB0FE96EFF0EDA20EA6EDC
:10050000350EEE5C8C0EEE58000EEE58000EEE58D6
:1005100004E2050EF36EF46ADBD0D950FB0FE96EEE
:10052000FF0EDA20EA6ECE0EEE5C8B0EEE58000E59
:10053000EE58000EEE5804E2060EF36EF46AC8D0D0
:10054000D950FB0FE96EFF0EDA20EA6ED880400E1C
:10055000EE548E0EEE54000EEE54000EEE5413E2E6
:10056000D950FB0FE96EFF0EDA20EA6EA90EEE5CA1
:100570008E0EEE58000EEE58000EEE5804E2070EF6
:10058000F36EF46AA5D0D950FB0FE96EFF0EDA20A6
:10059000EA6ED880A90EEE548E0EEE54000EEE5484
:1005A000000EEE5413E2D950FB0FE96EFF0EDA2075
:1005B000EA6E130EEE5C8F0EEE58000EEE58000E33
:1005C000EE5804E2080EF36EF46A82D0D950FB0FA5
:1005D000E96EFF0EDA20EA6ED880130EEE548F0E0D
:1005E000EE54000EEE54000EEE5413E2D950FB0F01
:1005F000E96EFF0EDA20EA6E7D0EEE5C8F0EEE588D
:10060000000EEE58000EEE5804E2090EF36EF46A86
:100610005FD0D950FB0FE96EFF0EDA20EA6ED8806A
:100620007D0EEE548F0EEE54000EEE54000EEE547E
:1006300013E2D950FB0FE96EFF0EDA20EA6EE80EE6
:10064000EE5C8F0EEE58000EEE58000EEE5804E2EF
:100650000A0EF36EF46A3CD0D950FB0FE96EFF0E20
:10066000DA20EA6ED880E80EEE548F0EEE54000EBB
:10067000EE54000EEE5413E2D950FB0FE96EFF0E5C
:10068000DA20EA6E520EEE5C900EEE58000EEE5836
:10069000000EEE5804E20B0EF36EF46A19D0D95036
:1006A000FB0FE96EFF0EDA20EA6ED880520EEE5490
:1006B000900EEE54000EEE54000EEE5405E20C0EB9
:1006C000F36EF46A05D004D00F0EF36EF46A00D016
:1006D000E552E7CFD9FF1200490ECD6E9E909F9054
:1006E000956A926A836A806A0001606B616BB16A85
:1006F000D08EF28EF28C9E949D84040E9F6E948414
:0A070000BD841200E9DFFFD71200EC
:06070A001E0EF66E000E4B
:10071000F76E000EF86E00010900F550836F0900B6
:10072000F550846F03E1836701D03DD00900F55097
:100730007E6F0900F5507F6F0900F550806F09004A
:100740000900F550E96E0900F550EA6E090009004C
:100750000900F550816F0900F550826F090009000A
:10076000F6CF85F0F7CF86F0F8CF87F07EC0F6FFA2
:100770007FC0F7FF80C0F8FF0001815302E1825380
:1007800007E00900F550EE6E8107F8E28207F9D71D
:1007900085C0F6FF86C0F7FF87C0F8FF000183071A
:0807A000000E845BBFD71200BC
:0807A800036A026A016A006A9B
:1007B000200EE76ED890043605360636073600362A
:1007C0000136023603360950005C0A5001580B50BE
:1007D00002580C50035809E30950005E0A50015AB0
:1007E0000B50025A0C50035A042AE72EE4D7120089
:1007F000000EF36E00EE00F0080E01D81200EA6061
:1008000002D0EE6AFCD7F350E9601200EE6AFCD722
:1008100013EE00F023EE00F0F86A0F9C85EC03F075
:0C08200003EC00F082EC03F0FBD71200A8
:04082C00036A080E45
:10083000E76ED890073603360C50035C02E3036E74
:08084000072AE72EF7D712008A
:020000040030CA
:0100000021DE
:01000100CE30
:0100020018E5
:010003001EDE
:010005008179
:010006008178
:00000001FF
