:020000040000FA
:0600000086EF04F012007F
:020006001200E6
:0600080016EF00F01200EB
:02000E000000F0
:06001800CDEF01F0120023
:02001E000100DF
:0C0020000E00000088000000020000003C
:04002C00DACFE4FF44
:10003000E2CFDAFFE9CFE4FFEACFE4FFF6CFE4FF57
:10004000F7CFE4FFF5CFE4FFF3CFE4FFF4CFE4FF15
:10005000FACFE4FF00EE00F0100EE80403E3EECF69
:10006000E4FFFBD700EE16F0000EE80403E3EECF4A
:10007000E4FFFBD7E652D9CFE6FFE1CFD9FF040E6C
:10008000E1269EA459D1050E0001895D47E20001D9
:100090008851882BDE6EDD6A9E94050E106E10C0AE
:1000A0000CF088C007F094EC04F003C088F0BECFD9
:1000B00010F0BFCF11F0126A136ADECFE9FFDDCF77
:1000C000EAFFD890E936EA36D890E936EA36620E89
:1000D000E926000EEA2210C0EEFF11C0EEFF12C0AA
:1000E000EEFF13C0EEFFBECF10F0BFCF11F0126ACB
:1000F000136A760EE96E000EEA6EEE5010240001CF
:10010000766FEE5011200001776FEE501220000143
:10011000786FEE5013200001796F0ED100018851E5
:10012000882BE66ED950020FE96EDACFEAFFE5526E
:10013000E750EE6EED6A050E106E10C00CF088C030
:1001400007F094EC04F003C088F09E94020EDBCF1D
:10015000E9FF030EDBCFEAFFD890E936EA36D89004
:10016000E936EA36620EE926000EEA22EE50000178
:10017000765D0001766FEE50000177590001776FD0
:10018000EE50000178590001786FEE500001795966
:100190000001796FBECF10F0BFCF11F0126A136A61
:1001A000020EDBCFE9FF030EDBCFEAFFD890E93682
:1001B000EA36D890E936EA36620EE926000EEA22DF
:1001C00010C0EEFF11C0EEFF12C0EEFF13C0EEFF35
:1001D000020EDBCFE9FF030EDBCFEAFFD890E93652
:1001E000EA36D890E936EA36620EE926000EEA22AF
:1001F00000017651EE240001766F00017751EE2068
:100200000001776F00017851EE200001786F000146
:100210007951EE200001796F76C07AF077C07BF0DB
:1002200078C07CF079C07DF0050E096E0A6A0B6A11
:100230000C6A7AC004F07BC005F07CC006F07DC07B
:1002400007F052EC04F004C07AF005C07BF006C061
:100250007CF007C07DF0836AC00E801684907AC05F
:10026000E6FF7BC0E6FF7CC0E6FF7DC0E6FFEAD884
:10027000E552E552E552E5520D0EF31801E1F45056
:1002800055E00C0EF31801E1F4504EE00B0EF3189C
:1002900001E1F45047E00A0EF31801E1F45040E0A8
:1002A000090EF31801E1F45039E0080EF31801E1EA
:1002B000F45032E0070EF31801E1F4502BE0060E83
:1002C000F31801E1F45024E0050EF31801E1F450B5
:1002D0001DE0040EF31801E1F45016E0030EF318CC
:1002E00001E1F4500FE0020EF31801E1F45008E0D0
:1002F000010EF31801E1F45001E01AD0838220D0FE
:1003000083841ED083861CD083881AD0838A18D019
:10031000838016D0808014D0808212D0808410D048
:1003200080860ED080880CD0808A0AD0838008D046
:10033000C00E836E848004D0D38ED392D3900300FA
:10034000040EE15C02E2E16AE552E16EE552E7CFBC
:10035000D9FFE55200EE15F0000EE80403E3E5CF07
:10036000EDFFFBD700EE0FF0100EE80403E3E5CF3E
:10037000EDFFFBD7E5CFFAFFE5CFF4FFE5CFF3FFC5
:10038000E5CFF5FFE5CFF7FFE5CFF6FFE5CFEAFFD5
:10039000E5CFE9FFE5CFDAFF1100D8CFE4FFE0CFEA
:1003A000E4FFE46EDACFE4FFE2CFDAFFE9CFE4FF67
:1003B000EACFE4FFE652D9CFE6FFE1CFD9FF020E44
:1003C000E126F29E0001886B806A836ADE6ADD6A3C
:1003D000DECF14F0DDCF15F0D890155004E6040EF2
:1003E000145C000E155817E2DECFE9FFDDCFEAFFFF
:1003F000D890E936EA36D890E936EA36620EE92630
:10040000000EEA22EE6AEE6AEE6AEE6ADF2A010E5A
:1004100001E3DB2ADDD7F29E020EE15C02E2E16A33
:10042000E552E16EE552E7CFD9FFE552E5CFEAFFAD
:10043000E5CFE9FFE5CFDAFFE550E5CFE0FFE5CF17
:10044000D8FF1000D9CFE6FFE1CFD9FFD950FB0F7D
:10045000E96EFF0EDA20EA6ED80EEE5C8D0EEE58D5
:10046000000EEE58000EEE5813E3D950FB0FE96E64
:10047000FF0EDA20EA6E400EEE5C8E0EEE58000E95
:10048000EE58000EEE5804E20D0EF36EF46A9DD1A4
:10049000D950FB0FE96EFF0EDA20EA6E6F0EEE5CAC
:1004A0008D0EEE58000EEE58000EEE5813E3D950A4
:1004B000FB0FE96EFF0EDA20EA6ED80EEE5C8D0EB1
:1004C000EE58000EEE58000EEE5804E2010EF36EE8
:1004D000F46A7BD1D950FB0FE96EFF0EDA20EA6E89
:1004E000030EEE5C8D0EEE58000EEE58000EEE5828
:1004F00013E3D950FB0FE96EFF0EDA20EA6E6F0EA0
:10050000EE5C8D0EEE58000EEE58000EEE5804E232
:10051000020EF36EF46A59D1D950FB0FE96EFF0E4B
:10052000DA20EA6E9C0EEE5C8C0EEE58000EEE5851
:10053000000EEE5813E3D950FB0FE96EFF0EDA20E0
:10054000EA6E030EEE5C8D0EEE58000EEE58000EB5
:10055000EE5804E2030EF36EF46A37D1D950FB0F64
:10056000E96EFF0EDA20EA6E350EEE5C8C0EEE5868
:10057000000EEE58000EEE5813E3D950FB0FE96E53
:10058000FF0EDA20EA6E9C0EEE5C8C0EEE58000E2A
:10059000EE58000EEE5804E2040EF36EF46A15D124
:1005A000D950FB0FE96EFF0EDA20EA6ECE0EEE5C3C
:1005B0008B0EEE58000EEE58000EEE5813E3D95095
:1005C000FB0FE96EFF0EDA20EA6E350EEE5C8C0E44
:1005D000EE58000EEE58000EEE5804E2050EF36ED3
:1005E000F46AF3D0D950FB0FE96EFF0EDA20EA6E01
:1005F000030EEE5C000EEE58000EEE58000EEE58A4
:1006000013E3D950FB0FE96EFF0EDA20EA6ECE0E2F
:10061000EE5C8B0EEE58000EEE58000EEE5804E223
:10062000060EF36EF46AD1D0D950FB0FE96EFF0EBF
:10063000DA20EA6E400EEE5C8E0EEE58000EEE589A
:10064000000EEE5813E3D950FB0FE96EFF0EDA20CF
:10065000EA6EA90EEE5C8E0EEE58000EEE58000EFD
:10066000EE5804E2070EF36EF46AAFD0D950FB0FD8
:10067000E96EFF0EDA20EA6EA90EEE5C8E0EEE58E1
:10068000000EEE58000EEE5813E3D950FB0FE96E42
:10069000FF0EDA20EA6E130EEE5C8F0EEE58000E9F
:1006A000EE58000EEE5804E2080EF36EF46A8DD098
:1006B000D950FB0FE96EFF0EDA20EA6E130EEE5CE6
:1006C0008F0EEE58000EEE58000EEE5813E3D95080
:1006D000FB0FE96EFF0EDA20EA6E7D0EEE5C8F0EE8
:1006E000EE58000EEE58000EEE5804E2090EF36EBE
:1006F000F46A6BD0D950FB0FE96EFF0EDA20EA6E78
:100700007D0EEE5C8F0EEE58000EEE58000EEE5889
:1007100013E3D950FB0FE96EFF0EDA20EA6EE80E04
:10072000EE5C8F0EEE58000EEE58000EEE5804E20E
:100730000A0EF36EF46A49D0D950FB0FE96EFF0E32
:10074000DA20EA6EE80EEE5C8F0EEE58000EEE58E0
:10075000000EEE5813E3D950FB0FE96EFF0EDA20BE
:10076000EA6E520EEE5C900EEE58000EEE58000E41
:10077000EE5804E20B0EF36EF46A27D0D950FB0F4B
:10078000E96EFF0EDA20EA6E520EEE5C900EEE5825
:10079000000EEE58000EEE5814E3D950FB0FE96E30
:1007A000FF0EDA20EA6E900EEE5C5F0EEE58010E40
:1007B000EE58000EEE5805E20C0EF36EF46A05D00A
:1007C00004D00F0EF36EF46A00D0E552E7CFD9FFE4
:1007D00012006F98490ECD6E9E909F90956A926A16
:1007E000836A806A0001606B616BB16AD08EF28EA1
:1007F000F28C9E949D84040E9F6E9484BD8412009E
:06080000E8DFFFD7120043
:0A0806001E0EF66E000EF76E000ED7
:10081000F86E00010900F550836F0900F550846FF0
:1008200003E1836701D03DD00900F5507E6F0900D8
:10083000F5507F6F0900F550806F09000900F550F1
:10084000E96E0900F550EA6E090009000900F5504B
:10085000816F0900F550826F09000900F6CF85F01D
:10086000F7CF86F0F8CF87F07EC0F6FF7FC0F7FFA6
:1008700080C0F8FF0001815302E1825307E00900C4
:10088000F550EE6E8107F8E28207F9D785C0F6FFD2
:1008900086C0F7FF87C0F8FF00018307000E845B66
:0408A000BFD71200AC
:0C08A400036A026A016A006A200EE76E17
:1008B000D89004360536063607360036013602363D
:1008C00003360950005C0A5001580B5002580C5076
:1008D000035809E30950005E0A50015A0B50025AAE
:0C08E0000C50035A042AE72EE4D7120043
:0408EC00000EF36E99
:1008F00000EE00F0080E01D81200EA6002D0EE6AA5
:0C090000FCD7F350E9601200EE6AFCD74F
:04090C0013EE00F0F6
:1009100023EE00F0F86A0F9C03EC04F003EC00F007
:0809200000EC04F0FBD712000B
:08092800036A080EE76ED89087
:10093000073603360C50035C02E3036E072AE72EEA
:04094000F7D71200D3
:020000040030CA
:0100000021DE
:01000100CE30
:0100020018E5
:010003001EDE
:010005008179
:010006008178
:00000001FF
